:100000000C94F2030C9423040C9423040C94230406
:100010000C9423040C9423040C9423040C942304C4
:100020000C9423040C9423040C9423040C942304B4
:100030000C9423040C9423040C9423040C942304A4
:100040000C9423040C9423040C9423040C94230494
:100050000C9423040C9423040C9423040C94610545
:100060000C9423040C942D080C94F9080C9423048C
:100070000C9423040C9423040C9423040C94230464
:100080000C9423040C9423040C9423040C94230454
:100090000C9460080C9438090C9423040C942304E9
:1000A0000C9423040C9423040C9423040C94230434
:1000B0000C9423040C9423040C9423040C94230424
:1000C0000C9423040C9423040C9423040C949308A0
:1000D0000C9477090C9423040C94C6080C94B6096C
:1000E0000C942304A61AA91A9C1AA01AE01AAD1A95
:1000F000B11AB71ABB1ABF1AC51AC91ACD1AE01A13
:10010000D31AD71ADB1A0C94DB1A0C94AD1A0C9480
:10011000AF0C0C94B11A0C949C120C94C51A0C944C
:10012000D31A0C9479070C94590C0C94C6070C94B0
:100130008A070C94CD1A0C94A91A0C94A01A0C944A
:1001400067160C94A6070C947A070C94C6040C94BA
:10015000AB170C94A61A0C94380E0C94E01A0C945D
:100160007D120C949C1A0C941F130C94410C0C944B
:10017000BF1A0C94AF120C949F110C94B3160C94EC
:10018000440D0C944D0C0C94D80D0C94B71A0C948F
:1001900088120C9459130C946A0C0C947D0A0C94DC
:1001A000E5120C9497130C94900B0C94F30C0C9494
:1001B000C91A0C9458060C94390C0C943A0C0C94F3
:1001C000690C0C94D1070C94620D0C9426180C94B5
:1001D000BB1A0C94D71A0C94370E00000000003E96
:1001E0005B4F5B3E3E6B4F6B3E1C3E7C3E1C183CA7
:1001F0007E3C181C577D571C1C5E7F5E1C00183C03
:100200001800FFE7C3E7FF0018241800FFE7DBE74B
:10021000FF30483A060E2629792926407F05050732
:10022000407F05253F5A3CE73C5A7F3E1C1C08088E
:100230001C1C3E7F14227F22145F5F005F5F060953
:100240007F017F006689956A606060606094A2FFAC
:10025000A29408047E040810207E201008082A1C9E
:1002600008081C2A08081E101010100C1E0C1E0C6A
:1002700030383E3830060E3E0E060000000000000A
:10028000005F00000007000700147F147F14242A79
:100290007F2A12231308646236495620500008074B
:1002A0000300001C2241000041221C002A1C7F1C6C
:1002B0002A08083E0808008070300008080808086E
:1002C000000060600020100804023E5149453E00D5
:1002D000427F400072494949462141494D33181433
:1002E000127F1027454545393C4A49493141211182
:1002F00009073649494936464949291E0000140074
:100300000000403400000008142241141414141496
:10031000004122140802015909063E415D594E7CF4
:100320001211127C7F494949363E414141227F41A9
:1003300041413E7F494949417F090909013E414107
:1003400051737F0808087F00417F41002040413FF2
:10035000017F081422417F404040407F021C027F01
:100360007F0408107F3E4141413E7F090909063E56
:100370004151215E7F091929462649494932030125
:100380007F01033F4040403F1F2040201F3F403837
:10039000403F631408146303047804036159494D12
:1003A00043007F4141410204081020004141417F48
:1003B00004020102044040404040000307080020BE
:1003C000545478407F2844443838444444283844BE
:1003D00044287F385454541800087E090218A4A4F5
:1003E0009C787F0804047800447D40002040403D14
:1003F000007F1028440000417F40007C047804788E
:100400007C080404783844444438FC182424181820
:10041000242418FC7C08040408485454542404047C
:100420003F44243C4040207C1C2040201C3C403069
:10043000403C44281028444C9090907C4464544C98
:1004400044000836410000007700000041360800F3
:1004500002010204023C2623263C1EA1A161123A9D
:100460004040207A385454555921555579412254E9
:10047000547842215554784020545579400C1E52EE
:100480007212395555555939545454593955545493
:10049000580000457C410002457D420001457C40FA
:1004A0007D1211127DF0282528F07C54554500203E
:1004B00054547C547C0A097F4932494949323A44B0
:1004C00044443A324A4848303A4141217A3A42401B
:1004D0002078009DA0A07D3D4242423D3D404040ED
:1004E0003D3C24FF2424487E4943662B2FFC2F2BC0
:1004F000FF0929F620C0887E090320545479410061
:1005000000447D413048484A32384040227A007ADF
:100510000A0A727D0D19317D2629292F28262929BD
:10052000292630484D4020380808080808080808DF
:10053000382F10C8ACBA2F102834FA00007B000006
:1005400008142A142222142A14085500550055AA0A
:1005500055AA55AAFF55FF55FF000000FF001010D7
:1005600010FF00141414FF001010FF00FF1010F013
:1005700010F0141414FC001414F700FF0000FF0026
:10058000FF1414F404FC141417101F10101F101F74
:100590001414141F00101010F0000000001F1010A1
:1005A00010101F10101010F010000000FF1010109D
:1005B000101010101010FF10000000FF140000FFBA
:1005C00000FF00001F10170000FC04F414141710A3
:1005D000171414F404F40000FF00F7141414141496
:1005E0001414F700F7141414171410101F101F140C
:1005F0001414F4141010F010F000001F101F00006D
:10060000001F14000000FC140000F010F01010FF98
:1006100010FF141414FF141010101F00000000F03D
:1006200010FFFFFFFFFFF0F0F0F0F0FFFFFF000012
:10063000000000FFFF0F0F0F0F0F3844443844FC39
:100640004A4A4A347E02020606027E027E02635550
:100650004941633844443C04407E201E2006027E0B
:10066000020299A5E7A5991C2A492A1C4C7201721D
:100670004C304A4D4D303048784830BC625A463D87
:100680003E494949007E0101017E2A2A2A2A2A443C
:10069000445F444440514A444040444A5140000071
:1006A000FF0103E080FF000008086B6B083612367C
:1006B0002436060F090F060000181800000010105D
:1006C000003040FF0101001F01011E00191D17121B
:1006D000003C3C3C3C00000000000000090A02080D
:1006E0000B0C0D07060304010000000000000000D1
:1006F00000000000000000000000000000000000FA
:1007000000000000000011100F00000000000000B9
:1007100000000000000000000000000000000000D9
:100720000102102020080810204010204080020103
:1007300002010804020101020408102040808040E8
:1007400020100804020180040201804020100804E7
:100750000201080402010102040810204080010285
:10076000040810204080050505050705080808084D
:10077000020202020A0A0808040404040101010139
:100780000101010103030303030303030407070734
:100790000C0C0C0C0C0C0C0C0202020206060606D9
:1007A000060606060B0B0B0B0B0B0B0B00002200B7
:1007B000250028002B002E0031003400020100002B
:1007C000050108010B0100002100240027002A0078
:1007D0002D003000330001010000040107010A016F
:1007E000C6047D0A11241FBECFEFD1E2DEBFCDBF0C
:1007F00000E00CBF12E0A0E0B2E0EEE2FCE300E0BB
:100800000BBF02C007900D92A837B107D9F725E0BA
:10081000A8E7B2E001C01D92A037B207E1F713E0EC
:10082000C2EFD3E000E006C021970109802FFE014E
:100830000E94E41DC03FD10780E00807A9F70E948D
:100840005C050C94801B0C9400004F925F926F9299
:100850007F928F929F92AF92BF92CF92DF92EF9250
:10086000FF920F931F93CF93DF9300D000D0CDB7AB
:10087000DEB788E792E00E94951829833A834B837C
:100880005C836D837E8349805A808B809C808D81C0
:100890009E810A970CF463C08CE892E00E94751266
:1008A000052C000C660877080A96092E000CAA0B86
:1008B000BB0BBF93AF939F938F93A12CB12C65017A
:1008C00018E9E12E13E0F12E00E010E026E930E017
:1008D00040E050E0C301B2010E944F0B2B013C01EC
:1008E0008CE892E00E9479129C01B401990C880B6B
:1008F000990B4901330FAA08BB08BF92AF929F9290
:100900008F92A12CB12C65011CEAE12E13E0F12E8F
:1009100000E010E028E730E040E050E00E944F0B9C
:100920004B015C014AE050E0B2018EE293E00E948C
:1009300062074AE050E0B4018EE293E00E94620751
:1009400000E21DEF21E030E0A401B2018CE892E06A
:100950000E94420F0FB6F894DEBF0FBECDBF2696A1
:100960000FB6F894DEBF0FBECDBFDF91CF911F91C0
:100970000F91FF90EF90DF90CF90BF90AF909F903E
:100980008F907F906F905F904F900895EF92FF92BD
:100990000F932FEF49E06AE08CE892E00E94B013D9
:1009A0008CE2E82EFF24F39406E021E440E467E0C3
:1009B00088E792E00E94EF190F91FF90EF90089561
:1009C000AF92BF92CF92DF92EF92FF920F931F935D
:1009D000CF93DF930E94F60540E855E260E070E0B7
:1009E0008EE293E00E94F50961E072E08EE293E00E
:1009F0000E94B00640E050E0BA018CE892E00E940C
:100A0000711460E070E08CE892E00E94440D38EDD3
:100A1000C32EDD24DA94C8EDDFEF8CE892E00E946B
:100A200079125C01AC0CBD1C8CE892E00E9475123E
:100A3000BC016C0F7D1FEE24EA94FE2C08E210E04E
:100A400028E230E0A5018CE892E00E94D80DA8973A
:100A5000C83E8EEFD80709F788E2C81AD10880ECA3
:100A6000C8168EEFD806B9F680EEE82E87E0F82E8D
:100A700008E210E028E730E040E050E060E070E09D
:100A80008CE892E00E945913E12C98EFF92E28E7A8
:100A900030E040E050E068E770E08CE892E00E94CF
:100AA0005913DF91CF911F910F91FF90EF90DF903D
:100AB000CF90BF90AF9008950E94E0040E9425045B
:100AC000FDCF1F920F920FB60F9211242F933F93D9
:100AD0008F939F93AF93BF938091C0029091C10277
:100AE000A091C202B091C3023091BF0223E0230F54
:100AF0002D3720F40196A11DB11D05C026E8230F56
:100B00000296A11DB11D2093BF028093C002909355
:100B1000C102A093C202B093C3028091C40290911B
:100B2000C502A091C602B091C7020196A11DB11DD8
:100B30008093C4029093C502A093C602B093C702EB
:100B4000BF91AF919F918F913F912F910F900FBEC9
:100B50000F901F9018953FB7F8948091C402909120
:100B6000C502A091C602B091C70226B5A89B05C0D8
:100B70002F3F19F00196A11DB11D3FBFBA2FA92F1C
:100B8000982F8827820F911DA11DB11DBC01CD0199
:100B900042E0660F771F881F991F4A95D1F7089585
:100BA000CF92DF92EF92FF92CF93DF936B017C01A4
:100BB0000E94AB05EB01C114D104E104F10479F00A
:100BC0000E94AB056C1B7D0B683E7340A0F381E077
:100BD000C81AD108E108F108C851DC4FECCFDF9109
:100BE000CF91FF90EF90DF90CF900895789484B5E7
:100BF000826084BD84B5816084BD85B5826085BD19
:100C000085B5816085BDEEE6F0E0808181608083FE
:100C1000E1E8F0E0108280818260808380818160E1
:100C20008083E0E8F0E0808181608083E1EBF0E0A8
:100C3000808184608083E0EBF0E08081816080834C
:100C4000E1E9F0E08081826080838081816080833F
:100C5000E0E9F0E0808181608083E1EAF0E080817A
:100C600082608083808181608083E0EAF0E080811F
:100C700081608083E1E2F1E0808182608083808115
:100C800081608083E0E2F1E0808181608083EAE737
:100C9000F0E08081846080838081826080838081B5
:100CA000816080838081806880831092C100089574
:100CB000CF92DF92EF92FF920F931F93CF93DF9328
:100CC0006C01EB017B01E40EF51E00E010E0CE1597
:100CD000DF0561F06991D601ED91FC910190F08101
:100CE000E02DC6011995080F191FF1CFC801DF913A
:100CF000CF911F910F91FF90EF90DF90CF900895CB
:100D00006115710579F0FB0101900020E9F7319739
:100D1000AF01461B570BDC01ED91FC910280F38182
:100D2000E02D199480E090E00895DC01ED91FC91B4
:100D30000190F081E02D19940F931F93CF93DF93CF
:100D4000EC016DE00E9495068C016AE0CE010E94E4
:100D50009506800F911FDF91CF911F910F910895FC
:100D60000F931F93CF93DF93EC010E9480068C01B9
:100D7000CE010E949C06800F911FDF91CF911F91A1
:100D80000F9108958F929F92AF92BF92CF92DF9270
:100D9000EF92FF920F931F93CF93DF93CDB7DEB700
:100DA000A1970FB6F894DEBF0FBECDBF6C01142F14
:100DB000E52FCB01022F19A2223008F40AE07E01B0
:100DC00021E2E20EF11C802E912CA12CB12C612F7E
:100DD0007E2FA50194010E94A31D029F10191124CA
:100DE00081E0E81AF1081A3014F4105D01C0195CB2
:100DF000F7011083122FE32FCA01232B242B252B5D
:100E000031F7B701C6010E948006A1960FB6F8948B
:100E1000DEBF0FBECDBFDF91CF911F910F91FF902D
:100E2000EF90DF90CF90BF90AF909F908F900895FC
:100E3000CF92DF92EF92FF920F931F93CF93DF93A6
:100E4000EC016A017B012115310579F4E881F98112
:100E50000190F081E02D642FDF91CF911F910F91D0
:100E6000FF90EF90DF90CF9019942A303105E9F48C
:100E700077FF1AC06DE20E9495068C014427552722
:100E8000BA014C195D096E097F092AE0CE010E9462
:100E9000C206800F911FDF91CF911F910F91FF909C
:100EA000EF90DF90CF9008952AE0B701A601CE0120
:100EB000DF91CF911F910F91FF90EF90DF90CF9036
:100EC0000C94C2060F931F93CF93DF93EC019A010A
:100ED000AB01770F660B770B0E9418078C01CE01D0
:100EE0000E949C06800F911FDF91CF911F910F915F
:100EF00008950895FC0124853585F901E05CFF4FD4
:100F000080819181329620813181821B930B8F7376
:100F100099270895DC011C96ED91FC911D97DF0146
:100F2000A05CBF4F2D913C91119712968D919C9191
:100F300011972817390739F08D919C91E80FF91F07
:100F4000808190E008958FEF9FEF0895FC01A485C4
:100F5000B585FD01E05CFF4F2081318132968081B3
:100F600091812817390779F080819181A80FB91FE5
:100F70008C91208131812F5F3F4F2F733327318335
:100F8000208390E008958FEF9FEF0895FC0181A1E9
:100F9000882329F0A489B5898C9186FFFBCF11A203
:100FA00008950F931F93CF93DF93FC01A685B78518
:100FB0008D01005C1F4FE8018881998101968F7334
:100FC0009927AD014E5B5F4FEA0128813981821775
:100FD0009307D1F3E80128813981A20FB31F6C93E5
:100FE000A685B785A05CBF4F11969C938E93A6896A
:100FF000B7892C9181E090E0078C02C0880F991F7F
:101000000A94E2F7822B8C9381E081A30488F5890E
:10101000E02D80818064808381E090E0DF91CF913A
:101020001F910F910895FB01E05CFF4F20813181FA
:101030002F5F3F4F2F733327DB01AE5BBF4F4D91C7
:101040005C912417350741F040815181DB01A40FE9
:10105000B51F8C933183208308951F920F920FB692
:101060000F9211240BB60F922F933F934F935F93E0
:101070006F937F938F939F93AF93BF93EF93FF9360
:101080008091C00082FD07C08091C6006CE275E0CF
:101090000E94130802C08091C600FF91EF91BF919A
:1010A000AF919F918F917F916F915F914F913F9100
:1010B0002F910F900BBE0F900FBE0F901F901895A1
:1010C0001F920F920FB60F9211240BB60F922F930F
:1010D0003F934F935F936F937F938F939F93AF93C0
:1010E000BF93EF93FF938091C80082FD07C080916A
:1010F000CE0064EA74E00E94130802C08091CE0022
:10110000FF91EF91BF91AF919F918F917F916F91DF
:101110005F914F913F912F910F900BBE0F900FBE9B
:101120000F901F9018951F920F920FB60F921124D7
:101130000BB60F922F933F934F935F936F937F93D1
:101140008F939F93AF93BF93EF93FF938091D000C2
:1011500082FD07C08091D6006CE174E00E94130804
:1011600002C08091D600FF91EF91BF91AF919F9106
:101170008F917F916F915F914F913F912F910F9040
:101180000BBE0F900FBE0F901F9018951F920F92DD
:101190000FB60F9211240BB60F922F933F934F93DC
:1011A0005F936F937F938F939F93AF93BF93EF93CF
:1011B000FF938091300182FD07C08091360164E980
:1011C00073E00E94130802C080913601FF91EF91F5
:1011D000BF91AF919F918F917F916F915F914F914F
:1011E0003F912F910F900BBE0F900FBE0F901F904D
:1011F00018951F920F920FB60F9211240BB60F92F3
:101200002F933F938F939F93EF93FF932091280504
:101210003091290580912A0590912B0528173907CF
:1012200031F48091C1008F7D8093C10014C0E091A2
:101230002A05F0912B05E851FB4F208180912A056A
:1012400090912B0501968F73992790932B0580938E
:101250002A052093C600FF91EF919F918F913F91B6
:101260002F910F900BBE0F900FBE0F901F901895EF
:101270001F920F920FB60F9211240BB60F922F935D
:101280003F938F939F93EF93FF932091A00430910E
:10129000A1048091A2049091A3042817390731F486
:1012A0008091C9008F7D8093C90014C0E091A20491
:1012B000F091A304E05AFB4F20818091A204909109
:1012C000A30401968F7399279093A3048093A2049B
:1012D0002093CE00FF91EF919F918F913F912F919D
:1012E0000F900BBE0F900FBE0F901F9018951F927E
:1012F0000F920FB60F9211240BB60F922F933F93BC
:101300008F939F93EF93FF932091180430911904CA
:1013100080911A0490911B042817390731F48091A9
:10132000D1008F7D8093D10014C0E0911A04F09118
:101330001B04E852FC4F208180911A0490911B04F9
:1013400001968F73992790931B0480931A0420931E
:10135000D600FF91EF919F918F913F912F910F9028
:101360000BBE0F900FBE0F901F9018951F920F92FB
:101370000FB60F9211240BB60F922F933F938F93BA
:101380009F93EF93FF93209190033091910380916D
:101390009203909193032817390731F4809131011A
:1013A0008F7D8093310114C0E0919203F0919303FB
:1013B000E05BFC4F20818091920390919303019612
:1013C0008F73992790939303809392032093360110
:1013D000FF91EF919F918F913F912F910F900BBEB5
:1013E0000F900FBE0F901F901895CF92DF92EF9243
:1013F000FF920F931F93CF93DF93EC016A017B0160
:101400004115514E6105710509F1EC89FD8981E0B5
:1014100090E008A002C0880F991F0A94E2F7808329
:1014200060E079E08DE390E0A70196010E94A31DA2
:1014300089019A0101501109210931093695279531
:1014400017950795980101151041A8F0EC89FD89C1
:10145000108260E874E88EE190E0A70196010E9496
:10146000A31DDA01C9010197A109B109B695A79594
:10147000979587959C01E889F9893083EA89FB89EA
:10148000208319A2EE89FF89408181E090E09C01D0
:101490000C8C02C0220F331F0A94E2F7242B208306
:1014A000EE89FF8940819C010D8C02C0220F331F01
:1014B0000A94E2F7242B2083EE89FF8940819C0166
:1014C0000E8C02C0220F331F0A94E2F7242B2083D4
:1014D000EE89FF8920810F8C02C0880F991F0A9422
:1014E000E2F7809582238083DF91CF911F910F9146
:1014F000FF90EF90DF90CF900895CF92DF92EF9220
:10150000FF92EEE2F3E01382128288EEC82E83E0AF
:10151000D82EE12CF12CC482D582E682F7826CE1D0
:1015200072E0718360838CE295E09587848788EE12
:1015300094E09787868785EC90E0918B808B84EC94
:1015400090E0938B828B80EC90E0958B848B81EC88
:1015500090E0978B868B82EC90E0918F808F86EC69
:1015600090E0938F828F44E0448F33E0358F27E003
:10157000268F95E0978F81E080A3ECE0F3E0138263
:101580001282C482D582E682F78271836083A4EAE4
:10159000B4E0B587A487A0E6B4E0B787A687ADEC32
:1015A000B0E0B18BA08BACECB0E0B38BA28BA8EC1D
:1015B000B0E0B58BA48BA9ECB0E0B78BA68BAAECFE
:1015C000B0E0B18FA08FAEECB0E0B38FA28F448FAC
:1015D000358F268F978F80A3EAEEF2E01382128276
:1015E000C482D582E682F78271836083ACE1B4E085
:1015F000B587A487A8EDB3E0B787A687A5EDB0E0CF
:10160000B18BA08BA4EDB0E0B38BA28BA0EDB0E0CA
:10161000B58BA48BA1EDB0E0B78BA68BA2EDB0E0AB
:10162000B18FA08FA6EDB0E0B38FA28F448F358F1E
:10163000268F978F80A3E8ECF2E013821282C48297
:10164000D582E682F7827183608364E973E07587EF
:10165000648760E573E07787668765E371E0718B87
:10166000608B64E371E0738B628B60E371E0758B78
:10167000648B61E371E0778B668B62E371E0718F5D
:10168000608F66E371E0738F628F448F358F268F92
:10169000978F80A3FF90EF90DF90CF9008954F92A7
:1016A0005F926F927F92AF92BF92CF92DF92EF9252
:1016B000FF920F931F93CF93DF93CDB7DEB729012E
:1016C0003A019B01AC0124193509460957098A8959
:1016D0009B89AC89BD89BC01CD016A197B098C0944
:1016E0009D090E94931DA8019701241935094609F7
:1016F00057090E94C51DCA01B9016A0D7B1D8C1DC9
:101700009D1DDF91CF911F910F91FF90EF90DF9082
:10171000CF90BF90AF907F906F905F904F90089563
:101720002F923F924F925F926F927F928F929F92F1
:10173000AF92BF92CF92DF92EF92FF920F931F93DF
:10174000CF93DF9300D0CDB7DEB74C017B836A83A4
:101750006A01590117019801241B350B37FF03C09B
:10176000319521953109C5014A815B81841B950B17
:1017700097FF03C091958195910951E05983821794
:10178000930714F019820BC09A2D8B2D5801092F45
:10179000182F9A818B81DB82CA82C92ED82E8A812A
:1017A0009B81A816B9065CF49C2D8D2D6801092F2C
:1017B000182F9A818B81BB82AA82A92EB82E25016F
:1017C000AA81BB814A1A5B0A38016C187D0877FE32
:1017D00003C0719461947108720157FE03C0BFEF9A
:1017E000EB1AFB0AF594E794C016D1061CF00FEF34
:1017F0001FEF1FC001E010E01CC0D401ED91FC916F
:10180000B9810084F185E02D9101BB23C1F04A81AB
:101810005B81B601C4011995E618F708F7FE04C00C
:10182000C00ED11EE40CF51CEA81FB813196FB83CE
:10183000EA834A815B81A416B506FCF604C0A601C2
:101840006A817B81E7CF0F900F900F90DF91CF914E
:101850001F910F91FF90EF90DF90CF90BF90AF90CE
:101860009F908F907F906F905F904F903F902F90C0
:1018700008950895DC01ED91FC910480F581E02D3F
:1018800019940F931F93DC01ED91FC91008CF18D65
:10189000E02D19951F910F9108950F931F93DC016F
:1018A000ED91FC91028CF38DE02D19951F910F9114
:1018B0000895EF92FF920F931F93DC01ED91FC913D
:1018C000048CF58DE02D19951F910F91FF90EF90ED
:1018D00008950895AF92BF92CF92DF92EF92FF9258
:1018E0000F931F93CF93DF9300D01F92CDB7DEB736
:1018F0005C016901DC01ED91FC910680F781E02D2E
:101900004B835C8369837A831995D501ED91FC91B2
:101910004B815C81C40ED51EB1E0CB1AD108008882
:10192000F189E02D7801860169817A819B01C501E9
:101930001995D501ED91FC910288F389E02DC5013F
:101940000F900F900F900F90DF91CF911F910F91FB
:10195000FF90EF90DF90CF90BF90AF901994AF922F
:10196000BF92CF92DF92EF92FF920F931F93CF938C
:10197000DF9300D01F92CDB7DEB75C016901DC01B7
:10198000ED91FC910680F781E02D4B835C836983A8
:101990007A831995D501ED91FC9169817A819B013A
:1019A0002C0D3D1D215031090088F189E02D780171
:1019B0004B815C818A01C5011995D501ED91FC919E
:1019C0000288F389E02DC5010F900F900F900F90C2
:1019D000DF91CF911F910F91FF90EF90DF90CF900B
:1019E000BF90AF9019944F925F926F927F928F92B7
:1019F0009F92AF92BF92CF92DF92EF92FF920F939E
:101A00001F93CF93DF931F921F92CDB7DEB76C0168
:101A10005A0139014801DC01ED91FC910680F78102
:101A2000E02D69837A8319956981462E7A81572E34
:101A3000640C751CD601ED91FC91461457046CF4AE
:101A40000484F585E02D87019401A501B201C6014A
:101A50001995BFEF4B1A5B0AEDCF0288F389E02D91
:101A6000C6010F900F90DF91CF911F910F91FF90C2
:101A7000EF90DF90CF90BF90AF909F908F907F902E
:101A80006F905F904F901994EF92FF920F931F9376
:101A9000DC01ED91FC9111971A960D911C911B9709
:101AA00018962D913C911997048CF58DE02D7B01B2
:101AB00040E050E060E070E019951F910F91FF90B9
:101AC000EF900895CF92DF92EF92FF920F931F93C2
:101AD000CF93DF9300D000D0CDB7DEB76C01DC012F
:101AE000ED91FC916217730789F4041715072CF424
:101AF000942F852FA801092F182F041B150B98016F
:101B00002F5F3F4F008CF18DE02D12C04017510721
:101B100009F5261737072CF4962F872FB901292F9F
:101B2000382F261B370B2F5F3F4F028CF38DE02D94
:101B30008701C601199526960FB6F894DEBF0FBE31
:101B4000CDBFDF91CF911F910F91FF90EF90DF906C
:101B5000CF9008950680F781E02D2D833E834B833F
:101B60005C8369837A831995D601ED91FC91008895
:101B7000F189E02D2D813E814B815C8169817A81E3
:101B8000C6011995D601ED91FC910288F389E02DEB
:101B9000C60126960FB6F894DEBF0FBECDBFDF910B
:101BA000CF911F910F91FF90EF90DF90CF901994FC
:101BB0006F927F928F929F92AF92BF92CF92DF925D
:101BC000EF92FF920F931F93CF93DF93EC014B01A2
:101BD0005A0169013801E881F9810680F781E02D19
:101BE0001995E881F9810684F785E02D8701960132
:101BF000A501B401CE011995E881F981A501460D31
:101C0000571D415051090684F785E02D9601B40116
:101C1000CE011995E881F9810484F585E02D9301C1
:101C2000A501B401CE011995E881F981C80CD91C30
:101C3000B601615071090484F585E02D9301A50179
:101C4000CE011995E881F9810288F389E02DCE0152
:101C5000DF91CF911F910F91FF90EF90DF90CF9088
:101C6000BF90AF909F908F907F906F901994089540
:101C7000FC016370658B8481958126813781613099
:101C800039F0633029F09187808733872287089560
:101C900031872087938782870895FC0113821282FF
:101CA0008CE292E0918380837583648357834683BB
:101CB0007187608753874287158A15861486178631
:101CC000168681E0848B2FEF3FEF338B228B318B95
:101CD000208B868B178A118E108E08952F923F923B
:101CE0004F925F926F927F928F929F92AF92BF922C
:101CF000CF92DF92EF92FF920F931F93CF93DF93D8
:101D0000CDB7DEB728970FB6F894DEBF0FBECDBFB4
:101D10005C013B014A0138872F83FC82EB8281E022
:101D200090E02C01421A530AC901919581959109BD
:101D30009C01220F331F3A832983170133E0230EBE
:101D4000311CEE24E394F12C802F81708D8302707E
:101D50000E83C7010197EF81F8858E179F070CF05E
:101D600078C057FC0CC0AF81B8851197B887AF8396
:101D7000E981FA813296FA83E9834E0E5F1EC7012C
:101D8000880F991F0196480E591EFD81FF2359F1B6
:101D9000D501ED91FC912F813885220F331F2F5FE4
:101DA0003F4F8B819C81280F391F0484F585E02DDE
:101DB0008601A401AF81B8854A1B5B0BB701660D94
:101DC000771DC5011995D501ED91FC910484F58528
:101DD000E02D9101A4014E195F096F817885660D90
:101DE000771DC5011995BE81BB2361F1D501ED9128
:101DF000FC912F813885220F331F2F5F3F4F8B813E
:101E00009C81280F391F0484F585E02D8601A401EB
:101E1000AF81B8854A1B5B0BB3016E197F09C50101
:101E20001995D501ED91FC910484F585E02D910182
:101E3000A4014E195F09B3018F819885681B790B46
:101E4000C50119959FEFE91AF90AA2E02A0E311C83
:101E500080CF28960FB6F894DEBF0FBECDBFDF91BE
:101E6000CF911F910F91FF90EF90DF90CF90BF9097
:101E7000AF909F908F907F906F905F904F903F902A
:101E80002F9008956F927F928F929F92AF92BF9200
:101E9000CF92DF92EF92FF920F931F93CF93DF9336
:101EA000EC014B013A0159016801E881F981068092
:101EB000F781E02D1995E881F9819501220F331FF3
:101EC0002F5F3F4FA3014A195B090484F585E02D7C
:101ED000B401CE011995E12CF12C03E09501A30189
:101EE000B401CE010E946E0EE881F9810288F38967
:101EF000E02DCE01DF91CF911F910F91FF90EF90D8
:101F0000DF90CF90BF90AF909F908F907F906F9019
:101F100019942F923F924F925F926F927F928F927D
:101F20009F92AF92BF92CF92DF92EF92FF920F9368
:101F30001F93CF93DF93CDB7DEB76C970FB6F894AE
:101F4000DEBF0FBECDBF9C8F8B8F5B011A011F833D
:101F50000E833701C982DC0158964D915C915997E7
:101F60004115510509F0E5C018968D919C9119977E
:101F7000681779070CF0CAC11A968D919C911B972E
:101F8000281639060CF0C2C18C2C912CFB0136E0CE
:101F9000C39EE00DF11D1124FB87EA871E161F0664
:101FA0000CF0B4C1C40133E0880F991F3A95E1F7F2
:101FB0009D878C87820D931D181619060CF0A6C1FB
:101FC00057968C91811103C0203B08F02F5FAB8D99
:101FD000BC8DED91FC9111970680F781E02DCD012C
:101FE0002A8F19952A8DB5E02B9F90011124F501B8
:101FF0003596FF87EE872501BB82AA82A9014A197F
:102000005B09598B488BC10108969B8B8A8BE889A9
:10201000F989E40DF51DE652FE4F949198873D82B3
:102020002C826101A885A0FF13C0AB8DBC8DED9102
:10203000FC91B981B13031F40084F185E02D2E811D
:102040003F8116C00284F385E02DEE80FF801AC028
:10205000EE81FF816E167F06F1F0AB8DBC8DED91A8
:10206000FC91B981B13051F40084F185E02D9301E8
:10207000A601B2018B8D9C8D19950DC00284F3854C
:10208000E02D7301840194014C815D816A817B8123
:102090008B8D9C8D1995E885E695E8872C813D818F
:1020A000280D391D3D832C833FEFC31AD30A4A897B
:1020B0005B89C416D50609F0B5CF8A819B81880D4E
:1020C000991D9B838A839FEF491A590AAE85BF8564
:1020D0004A165B0609F09BCFEE81FF816E167F06E4
:1020E00009F4F2C0EB8DFC8DA081B181F981F13052
:1020F00079F4B5016B5F7F4F1C96ED91FC911D97B4
:10210000830128E030E0A1018B8D9C8D1995DCC006
:102110006A857B85681979091A96ED91FC911B9760
:1021200073010C851D859401A1018B8D9C8D1995E2
:10213000CBC0FA0134969491329765917491291B22
:10214000CB01B7E02B9F800D911D1124FA01259141
:1021500034913B8B2A8BFC01459154915B834A83DC
:10216000FC013296C490319654915C87329614915A
:102170003196D4908981823058F0612E012E000C66
:102180007708AD2D0D2C000CBB0BB987A88704C0B8
:1021900019861886612C712CAB8DBC8DED91FC914C
:1021A00011970680F781E02DCD011995B9818B2E0D
:1021B000912C689CC001699C900D789C900D112415
:1021C000FC01EA0DFB1DF98BE88B1C82712C612C44
:1021D000E12F110FFF0B95012E0F3F1F3B872A8721
:1021E000AC0CB11CA5014E0F5F1F5F8B4E8BC10164
:1021F0008D0D911DD7FC9A95998F888F4C8564160B
:1022000008F062C0862D90E048855985480F591F17
:10221000489D9001499D300D589D300D1124D901E4
:10222000A20DB31DBF87AE87AA84BB844888598896
:10223000DC80BA85DB1AE88DF98DE80FF91FFD8B7C
:10224000EC8B8D2D8A0D2E893F89A216B306B9F12C
:10225000877061F48A819B810196EA89FB89AA8152
:10226000BB81EA0FFB1F74909B838A8377FE20C09B
:10227000AB8DBC8DED91FC91B981B13061F40084DE
:10228000F185E02D2E813F814C895D89B5018B8DD3
:102290009C8D19950DC00284F385E02DEE80FF80A2
:1022A000840194014E855F85B2018B8D9C8D1995BB
:1022B000770C480C591CEFEFAE1ABE0AC2CF3C8116
:1022C0003C0D3C8363949ACFAB8DBC8DED91FC911A
:1022D00011970288F389E02DCD016C960FB6F89422
:1022E000DEBF0FBECDBFDF91CF911F910F91FF9049
:1022F000EF90DF90CF90BF90AF909F908F907F90A6
:102300006F905F904F903F902F9019946C960FB6FE
:10231000F894DEBF0FBECDBFDF91CF911F910F911B
:10232000FF90EF90DF90CF90BF90AF909F908F90F5
:102330007F906F905F904F903F902F900895AF9255
:10234000BF92CF92EF92FF920F931F93CF93DF93A1
:10235000EC01262F888D998D009709F040C06A30D6
:1023600059F41D861C862C898E859F8538E0239F15
:10237000800D911D112441C06D3009F4AAC08E89D1
:102380008823C1F03C898C859D8546E0349F800D73
:10239000911D112448855985481759075CF41D86FD
:1023A0001C868E859F8548E0349F800D911D1124E9
:1023B0009F878E87EA88FB88088919894E855F8503
:1023C0006C857D85CC88CE010E94890F2C898C85F7
:1023D0009D8536E0239F800D911D112442C06A30F7
:1023E00079F41D861C862C89FC013696E4918E8535
:1023F0009F852E9F800D911D11249F878E8769C018
:102400006D3009F466C0FC0134963491631708F40A
:1024100060C03196E491E61708F45BC0FC01329687
:10242000A590B490462F50E0431B510937E0349FEC
:10243000B001359F700D1124A60EB71EF50132961E
:1024400034913196E491332311F0E1110DC0F5017F
:102450003496E4912C898C859D85E29F800D911D99
:1024600011249D878C8735C0F501359644915E898E
:10247000552311F16C89E32FF0E0E40FF11D47FDC6
:10248000FA956E9FD0016F9FB00D11244C855D852C
:102490004A0F5B1FE885F985E417F5076CF41D8684
:1024A0001C86FC013696E4918E859F856E9F800D7B
:1024B000911D11249F878E87EA88FB8808891989D6
:1024C0004E855F856C857D85CC88CE010E94890F05
:1024D000BECF81E090E0DF91CF911F910F91FF90EF
:1024E000EF90CF90BF90AF900895FC0180859185CB
:1024F0000895FC01828593850895DC019C96ED91F9
:10250000FC919D979081D1968C91892B8083089521
:10251000EF92FF920F931F93DC01ED91FC910284E7
:10252000F385E02D7801890121E030E019951F91B4
:102530000F91FF90EF900895EF92FF920F931F93EA
:10254000DC01ED91FC910284F385E02D780101E03E
:1025500010E019951F910F91FF90EF9008950F9340
:102560001F93CF93DF9300D000D0CDB7DEB78C019F
:10257000DC01ED91FC910680F781E02D2D833E83F7
:102580004B835C8369837A831995D801ED91FC9123
:102590000084F185E02D2D813E814B815C81698134
:1025A0007A81C8011995D801ED91FC910288F389CF
:1025B000E02DC80126960FB6F894DEBF0FBECDBF42
:1025C000DF91CF911F910F911994EF92FF920F938A
:1025D0001F93CF93DF9300D000D0CDB7DEB77C013F
:1025E000DC01ED91FC910680F781E02D2D833E8387
:1025F0004B835C8369837A831995D701ED91FC91B4
:102600000484F585E02D2D813E814B815C816981BB
:102610007A81C7011995D701ED91FC910288F38960
:10262000E02DC70126960FB6F894DEBF0FBECDBFD2
:10263000DF91CF911F910F91FF90EF901994EF923E
:10264000FF920F931F93CF93DF9300D000D0CDB7AD
:10265000DEB77C01DC01ED91FC910680F781E02D75
:102660002D833E834B835C8369837A831995D701DD
:10267000ED91FC910684F785E02D2D813E814B8103
:102680005C8169817A81C7011995D701ED91FC912F
:102690000288F389E02DC70126960FB6F894DEBFB5
:1026A0000FBECDBFDF91CF911F910F91FF90EF90A3
:1026B0001994CF92DF92EF92FF920F931F93CF93D3
:1026C000DF9300D000D0CDB7DEB76C01DC01ED9117
:1026D000FC910680F781E02D2D833E834B835C8344
:1026E00069837A831995D601ED91FC910284F38573
:1026F000E02D2D813E814B815C8169817A81C6010B
:102700001995D601ED91FC910288F389E02DC6015F
:1027100026960FB6F894DEBF0FBECDBFDF91CF91E6
:102720001F910F91FF90EF90DF90CF901994CF936E
:10273000DF93EC0189A187FF09C084E00E94711B2F
:1027400081E00E94631B80E00E946C1BECA5FDA54C
:10275000908189A9809589238083DF91CF91089505
:10276000EF92FF920F931F93CF93DF931F92CDB7FA
:10277000DEB77C01062F142F40E451E060EF70E0DB
:1027800029830E944D0E84E592E0D70111969C9317
:102790008E935E960C935E975F961C935F9729814C
:1027A00090962C9390978FEF91968C939197929609
:1027B0008C93929793968C939397F701128E138E26
:1027C000148E158E602F000F770BFB01EA59F84F1E
:1027D0008491E82FF0E0EE0FFF1FE455F84F85914C
:1027E00094919D969C938E939C97FB01E05EF84F8D
:1027F000E491D196EC93D197412F110F550BFA012B
:10280000EA59F84FE491F0E0EE0FFF1FE455F84F5E
:1028100085919491F70193A782A7FA01E05EF84FA2
:10282000E491D296EC93D29799961C921E92989727
:10283000D0961C92D09795961C921E9294979E9635
:102840001C929E9797961C921E9296979F961C920A
:102850000F90DF91CF911F910F91FF90EF9008950E
:10286000FC0181A187FF05C06EBD0DB407FEFDCF41
:10287000089528E030E090E8A4A1B5A186A5492FED
:10288000462319F04C91842B03C04C9180958423EE
:102890008C93A0A5B1A54C9180A9809584238C939D
:1028A000A0A5B1A54C9180A9842B8C93969521501D
:1028B000310911F70895CF93DF93EC01EAA5FBA549
:1028C00090818AA9809589238083CE010E9430144B
:1028D000EAA5FBA590818AA9892B8083DF91CF91FE
:1028E0000895CF93DF93EC01411551056105710502
:1028F00021F440E052E16AE770E04A8F5B8F6C8F11
:102900007D8F61E08F8D0E94E11A60E08F8D0E94C3
:102910001D1B61E08E8D0E94E11A61E08E8D0E9488
:102920001D1B89A187FD16C061E08AA10E94E11AE2
:1029300060E08AA10E941D1B61E089A10E94E11A4A
:1029400061E089A10E941D1B8BA187FD03C060E08F
:102950000E94E11A89A187FD0E944D1B88A187FD75
:1029600021C061E00E94E11A61E088A10E941D1B64
:1029700064E670E080E090E00E94D00560E088A10D
:102980000E941D1B64E670E080E090E00E94D0058C
:1029900061E088A10E941D1B68EC70E080E090E07F
:1029A0000E94D005E881F9810680F781E02DCE01F3
:1029B00019956FEECE010E945B1463E0CE010E9478
:1029C000301460E8CE010E94301462E0CE010E9413
:1029D00030146FECCE010E945B1460E0CE010E94C7
:1029E000301461ECCE010E94301460E3CE010E94ED
:1029F00030146DEECE010E945B1464E6CE010E949D
:102A0000301463E0CE010E94301462E1CE010E94D6
:102A1000301461E8CE010E94301468EECE010E94AD
:102A20005B1465E8CE010E94301460E0CE010E9484
:102A3000301468E7CE010E9430146BECCE010E9486
:102A40005B1469E3CE010E9430146CE2CE010E9457
:102A5000301460E0CE010E94301464E3CE010E9485
:102A6000301462E0CE010E94301467EFCE010E9464
:102A70005B1460E2CE010E9430146AEECE010E9427
:102A80005B1460E0CE010E94301460E0CE010E9431
:102A9000301460ECCE010E945B1463E2CE010E9410
:102AA000301461ECCE010E945B1460E1CE010E9403
:102AB000301465ECCE010E945B146EE3CE010E94DF
:102AC000301468E2CE010E94301467ECCE010E94FF
:102AD0005B1466E8CE010E94301466E3CE010E94CA
:102AE0005B1468E4CE010E94301467E3CE010E94BB
:102AF0005B1489A187FF09C01EBC0DB407FEFDCF82
:102B00001EBC0DB407FEFDCF08C060E0CE010E94E0
:102B1000301460E0CE010E9430146AE3CE010E94BE
:102B20005B1465E5CE010E94301461EBCE010E947A
:102B30005B1460E0CE010E94301468E1CE010E9477
:102B4000301466EBCE010E945B1468E0CE010E9457
:102B5000301462E8CE010E94301467E2CE010E9478
:102B6000301462EFCE010E945B1460E0CE010E943F
:102B7000301466E2CE010E945B1461E0CE010E9437
:102B8000301460EECE010E945B146FE0CE010E9413
:102B9000301461E3CE010E9430146BE2CE010E943A
:102BA00030146CE0CE010E9430146EE0CE010E9421
:102BB000301468E0CE010E9430146EE4CE010E9411
:102BC000301461EFCE010E94301467E3CE010E9401
:102BD000301467E0CE010E94301460E1CE010E9403
:102BE000301463E0CE010E9430146EE0CE010E94EA
:102BF000301469E0CE010E94301460E0CE010E94E2
:102C0000301461EECE010E945B1460E0CE010E94A0
:102C100030146EE0CE010E94301464E1CE010E94B7
:102C2000301463E0CE010E94301461E1CE010E94B5
:102C3000301467E0CE010E94301461E3CE010E949F
:102C4000301461ECCE010E94301468E4CE010E9481
:102C5000301468E0CE010E9430146FE0CE010E9473
:102C600030146CE0CE010E94301461E3CE010E946A
:102C7000301466E3CE010E9430146FE0CE010E9452
:102C8000301461E1CE010E945B1468E770E080E0DF
:102C900090E00E94D00569E2CE010E945B1468E7D3
:102CA00070E080E090E00E94D005E881F981028820
:102CB000F389E02DCE01199580EF90E09987888700
:102CC00080E491E09B878A87DF91CF9108951F93DD
:102CD000CF93DF93EC0163706D8B6230C1F0633092
:102CE00001F1613051F080EF90E09987888780E4AE
:102CF00091E09B878A8718E41DC080E491E0998762
:102D0000888780EF90E09B878A8718E213C080EF66
:102D100090E09987888780E491E09B878A8718E80C
:102D200009C080E491E09987888780EF90E09B87D5
:102D30008A8718EEE881F9810680F781E02DCE01BF
:102D4000199566E3CE010E945B14612FCE010E94AB
:102D50003014E881F9810288F389E02DCE01DF91FA
:102D6000CF911F9119940F931F93CF93DF931F92CD
:102D7000CDB7DEB78C01DC01ED91FC910680F781C7
:102D8000E02D698319956981611102C060E201C07B
:102D900061E2C8010E945B14D801ED91FC910288A8
:102DA000F389E02DC8010F90DF91CF911F910F9112
:102DB00019948F929F92AF92BF92CF92DF92EF922F
:102DC000FF920F931F93CF93DF93EC01490181E0B2
:102DD000881A9108860E971EC401A0E0B0E04B014E
:102DE000A12CB12C540199248824882A992AAA2A32
:102DF000BB2A680181E0C81AD108C40ED51EC601DD
:102E0000A0E0B0E06A01E12CF12C7601DD24CC24B5
:102E1000C82AD92AEA2AFB2A6AE2CE010E945B1458
:102E200029A16B2D77278827992727FF18C06EBD0A
:102E30000DB407FEFDCFC501AA27BB278EBD0DB47B
:102E400007FEFDCFBB27AB2D9A2D892D8EBD0DB46E
:102E500007FEFDCF8EBC0DB407FEFDCF14C0CE0122
:102E60000E943014B50188279927CE010E943014A2
:102E700099278B2D7A2D692DCE010E943014682D53
:102E8000CE010E9430146BE2CE010E945B1429A196
:102E90006F2D77278827992727FF18C06EBD0DB49F
:102EA00007FEFDCFC701AA27BB278EBD0DB407FEC5
:102EB000FDCFBB27AF2D9E2D8D2D8EBD0DB407FEF2
:102EC000FDCFCEBC0DB407FEFDCF14C0CE010E94D5
:102ED0003014B70188279927CE010E943014992712
:102EE0008F2D7E2D6D2DCE010E9430146C2DCE01C4
:102EF0000E9430146CE2CE01DF91CF911F910F91AF
:102F0000FF90EF90DF90CF90BF90AF909F908F9009
:102F10000C945B141F93CF93DF93262FFC0131A1F8
:102F200037FF09C07EBD0DB407FEFDCF2EBD0DB429
:102F300007FEFDCF0CC0672F122FEC010E9430144A
:102F4000612FCE01DF91CF911F910C943014DF914E
:102F5000CF911F910895EF92FF920F931F93CF93FC
:102F6000DF9377FD23C0DC011896ED91FC91199752
:102F70006E177F07DCF457FD19C01A96ED91FC918E
:102F80001B974E175F0794F47901EC0101E010E004
:102F900021E030E00E94D916B701CE01DF91CF9138
:102FA0001F910F91FF90EF900C948A17DF91CF91B2
:102FB0001F910F91FF90EF900895EF92FF921F9352
:102FC000CF93DF9300D01F921F92CDB7DEB77C0165
:102FD000162FFC0181A187FF12C021153105410583
:102FE000510549F17EBD0DB407FEFDCF1EBD0DB4E8
:102FF00007FEFDCF2150310941095109EECF2115BE
:10300000310541055105B9F0672FC70129833A837E
:103010004B835C837D830E943014612FC7010E9423
:10302000301429813A814B815C8121503109410959
:1030300051097D81E4CF0F900F900F900F900F906A
:10304000DF91CF911F91FF90EF9008958F929F9203
:10305000AF92BF92CF92DF92EF92FF920F931F93A6
:10306000CF93DF935C01FB01E9014701DC01189676
:103070002D913C911997621773070CF049C01A966D
:103080008D919C911B97481759070CF041C06B011B
:10309000CC0EDD1ED60111977A01E00EF11EB701AC
:1030A00061507109B7FD34C077FD32C0F7FF03C02E
:1030B000E601E0E0F0E057FF03C0870140E050E0A8
:1030C000A217B3071CF0E901CE1BDF0B68177907C5
:1030D0001CF08C01041B150B9E01D8010E94EC1DF5
:1030E0006B017C01BF01C5010E94D916A7019601A1
:1030F000B401C501DF91CF911F910F91FF90EF9027
:10310000DF90CF90BF90AF909F908F900C94DD1781
:10311000DF91CF911F910F91FF90EF90DF90CF90B3
:10312000BF90AF909F908F9008954F925F926F9253
:103130007F929F92AF92BF92CF92DF92EF92FF92D7
:103140000F931F93CF93DF9300D000D0CDB7DEB79E
:103150008C0160E0DC0112968C910E94E11A60E023
:10316000F80183810E94E11A61E0D80115968C91E3
:103170000E94E11A61E0F80184810E94E11AD801FD
:1031800050968C9150971896ED91FC9119979081DB
:10319000892B808351969C9151971C96ED91FC91BF
:1031A0001D978081282F30E0892F90E080959095A1
:1031B00082239323808312968C910E946A1A7C0149
:1031C000F80182810E946A1A9701281B390B2C5F33
:1031D0003F4F2930310548F4A701480F591FCA0154
:1031E000959587959924939401C0912C2FEF33E006
:1031F0007901E81AF90A60E0D80115968C910E94CD
:10320000E11A60E0F80184810E94E11A61E0D801CE
:1032100012968C910E94E11A61E0F80183810E946C
:10322000E11AD80153969C9153971E96ED91FC910B
:103230001F978081282F30E0892F90E0809590950E
:1032400082239323808352968C9152971A96ED9104
:10325000FC911B979081892B808314968C910E94FE
:103260006A1A6C01F80184810E946A1AA601481B3F
:10327000590B4C5F5F4F4930510538F49601280FC8
:10328000391FC9019595879501C0912C4FEF53E0E7
:103290006A01C81AD90A61E0D80115968C910E947A
:1032A000E11A60E0F80182810E94E11AD80150968B
:1032B0009C9150971896ED91FC9119978081282F39
:1032C00030E0892F90E0809590958223932380832E
:1032D00053968C9153971E96ED91FC911F97908178
:1032E000892B808314968C910E946A1A5C01F801E4
:1032F00082810E946A1AD80116960D911C91179727
:103300000115110509F43FC0BC01990F880B990BF9
:103310000E949A1C2B013C01B501BB0C880B990B38
:103320000E949A1C9B01AC01C301B2010E94F01BD8
:1033300020E030E040E85FE30E94831B2B013C016A
:10334000B7010F2C000C880B990B0E949A1C9B0153
:10335000AC01C301B2010E94261D2B013C01B80142
:1033600080E090E00E94981C9B01AC01C301B20177
:103370000E94261D20E030E040E85AE30E94261D0E
:103380000E94621C05C0B501681B790B61507C4F1F
:10339000911002C060E070E0FA82E982DC82CB82A8
:1033A0007E836D832E2D3A814C2D5C817E8180E061
:1033B00090E026960FB6F894DEBF0FBECDBFDF912A
:1033C000CF911F910F91FF90EF90DF90CF90BF9022
:1033D000AF909F907F906F905F904F900895EF9285
:1033E000FF920F931F93DC0112964C931297149641
:1033F0002C93149713960C93139715966C9315971B
:103400001796FC92EE92169770E0FB01EA59F84F7E
:10341000E491F0E0EE0FFF1FE455F84F8591949191
:1034200019969C938E93189750E0FA01EA59F84F39
:10343000E491F0E0EE0FFF1FE455F84F8591949171
:103440001B969C938E931A9730E0F901EA59F84F36
:10345000E491F0E0EE0FFF1FE455F84F8591949151
:103460001D969C938E931C9710E0F801EA59F84F33
:10347000849190E0880F991F8455984FFC018591A5
:1034800094911F969C938E931E97FB01E05EF84FDC
:10349000649150966C935097FA01E05EF84F449116
:1034A00052964C935297F901E05EF84F2491519651
:1034B0002C935197F801E05EF84F049153960C93CA
:1034C00053978AE090E08D939C931F910F91FF900A
:1034D000EF900895863308F0865390917B00282F53
:1034E0002870977F922B90937B0087702091000229
:1034F00090E4299F90011124822B80937C0080917D
:103500007A00806480937A0080917A0086FDFCCFF7
:10351000809178002091790090E0922B089590E0BE
:10352000FC013197E131F10508F04AC08827EE58D7
:10353000FF4F8F4F0C94E41D809180008F7703C064
:10354000809180008F7D80938000089584B58F776F
:1035500002C084B58F7D84BD08958091B0008F77BF
:1035600003C08091B0008F7D8093B000089580915A
:1035700090008F7707C0809190008F7D03C080916D
:103580009000877F8093900008958091A0008F77AE
:1035900007C08091A0008F7D03C08091A000877F2D
:1035A0008093A0000895809120018F7707C08091BB
:1035B00020018F7D03C080912001877F80932001AF
:1035C0000895CF93DF9390E0FC01E05EF84F2491E3
:1035D000FC01EA59F84F8491882361F190E0880F4B
:1035E000991FFC01EA53F84FC591D491FC01E455B1
:1035F000F84FA591B491611109C09FB7F8948881E3
:10360000209582238883EC912E230BC0623061F4D5
:103610009FB7F8943881822F809583238883EC911B
:103620002E2B2C939FBF06C08FB7F894E8812E2BCA
:1036300028838FBFDF91CF9108951F93CF93DF939E
:10364000282F30E0F901E652F94F8491F901E05E4C
:10365000F84FD491F901EA59F84FC491CC23C9F03D
:10366000162F81110E948F1AEC2FF0E0EE0FFF1F32
:10367000E455F84FA591B4918FB7F894111105C096
:103680009C91ED2FE095E92302C0EC91ED2BEC939A
:103690008FBFDF91CF911F91089561E085E30E9474
:1036A0001D1B61E085E30E94E11A8CB580618CBD31
:1036B0008CB580648CBD61E084E30E94E11A61E016
:1036C00083E30C94E11A811103C08CB5806202C0BF
:1036D0008CB58F7D8CBD08959CB5937F892B8CBD57
:1036E00008959CB5282F23709C7F922B9CBD2DB5EF
:1036F00082FB992790F9822F8E7F892B8DBD0895AB
:10370000F8940C94151E5058BB27AA270E949B1BA7
:103710000C94EC1C0E94DE1C38F00E94E51C20F08A
:1037200039F49F3F19F426F40C94DB1C0EF4E09559
:10373000E7FB0C94D51CE92F0E94FD1C58F3BA1727
:10374000620773078407950720F079F4A6F50C94B7
:103750001F1D0EF4E0950B2EBA2FA02D0B01B90101
:1037600090010C01CA01A0011124FF27591B99F0F7
:10377000593F50F4503E68F11A16F040A22F232F03
:10378000342F4427585FF3CF469537952795A79553
:10379000F0405395C9F77EF41F16BA0B620B730BFA
:1037A000840BBAF09150A1F0FF0FBB1F661F771F6B
:1037B000881FC2F70EC0BA0F621F731F841F48F420
:1037C000879577956795B795F7959E3F08F0B0CFA9
:1037D0009395880F08F09927EE0F97958795089590
:1037E0000E94041C0C94EC1C0E94E51C58F00E94E2
:1037F000DE1C40F029F45F3F29F00C94D51C5111D8
:103800000C94201D0C94DB1C0E94FD1C68F3992372
:10381000B1F3552391F3951B550BBB27AA276217CC
:103820007307840738F09F5F5F4F220F331F441FD9
:10383000AA1FA9F335D00E2E3AF0E0E832D091500D
:103840005040E695001CCAF72BD0FE2F29D0660FFA
:10385000771F881FBB1F261737074807AB07B0E83D
:1038600009F0BB0B802DBF01FF2793585F4F3AF043
:103870009E3F510578F00C94D51C0C94201D5F3FA1
:10388000E4F3983ED4F3869577956795B795F795C9
:103890009F5FC9F7880F911D9695879597F90895B1
:1038A000E1E0660F771F881FBB1F6217730784074D
:1038B000BA0720F0621B730B840BBA0BEE1F88F75C
:1038C000E09508950E94691C6894B1110C94201D24
:1038D00008950E94051D88F09F5798F0B92F9927E9
:1038E000B751B0F0E1F0660F771F881F991F1AF0EB
:1038F000BA95C9F714C0B13091F00E941F1DB1E014
:1039000008950C941F1D672F782F8827B85F39F012
:10391000B93FCCF3869577956795B395D9F73EF483
:1039200090958095709561957F4F8F4F9F4F08952B
:10393000E89409C097FB3EF4909580957095619549
:103940007F4F8F4F9F4F9923A9F0F92F96E9BB27FF
:103950009395F695879577956795B795F111F8CF7B
:10396000FAF4BB0F11F460FF1BC06F5F7F4F8F4FE6
:103970009F4F16C0882311F096E911C0772321F0DC
:103980009EE8872F762F05C0662371F096E8862F74
:1039900070E060E02AF09A95660F771F881FDAF7CB
:1039A000880F9695879597F9089597F99F6780E80E
:1039B00070E060E008959FEF80EC089500240A9481
:1039C0001616170618060906089500240A941216FA
:1039D0001306140605060895092E0394000C11F42D
:1039E000882352F0BB0F40F4BF2B11F460FF04C0DA
:1039F0006F5F7F4F8F4F9F4F089557FD9058440F33
:103A0000551F59F05F3F71F04795880F97FB991F3D
:103A100061F09F3F79F087950895121613061406FA
:103A2000551FF2CF4695F1DF08C016161706180687
:103A3000991FF1CF86957105610508940895E89462
:103A4000BB2766277727CB0197F908950E94391D78
:103A50000C94EC1C0E94DE1C38F00E94E51C20F047
:103A6000952311F00C94D51C0C94DB1C11240C94A0
:103A7000201D0E94FD1C70F3959FC1F3950F50E02F
:103A8000551F629FF001729FBB27F00DB11D639F10
:103A9000AA27F00DB11DAA1F649F6627B00DA11DB6
:103AA000661F829F2227B00DA11D621F739FB00D5C
:103AB000A11D621F839FA00D611D221F749F3327CC
:103AC000A00D611D231F849F600D211D822F762F65
:103AD0006A2F11249F5750409AF0F1F088234AF042
:103AE000EE0FFF1FBB1F661F771F881F91505040AE
:103AF000A9F79E3F510580F00C94D51C0C94201D15
:103B00005F3FE4F3983ED4F3869577956795B79534
:103B1000F795E7959F5FC1F7FE2B880F911D96954E
:103B2000879597F90895DB018F939F930E940A1E52
:103B3000BF91AF91A29F800D911DA39F900DB29F49
:103B4000900D11240895A1E21A2EAA1BBB1BFD01A2
:103B50000DC0AA1FBB1FEE1FFF1FA217B307E4076C
:103B6000F50720F0A21BB30BE40BF50B661F771FC4
:103B7000881F991F1A9469F76095709580959095A4
:103B80009B01AC01BD01CF010895052E97FB1EF4EA
:103B900000940E94DC1D57FD07D00E94A31D07FC66
:103BA00003D04EF40C94DC1D509540953095219532
:103BB0003F4F4F4F5F4F0895909580957095619559
:103BC0007F4F8F4F9F4F0895EE0FFF1F881F8BBFB2
:103BD0000790F691E02D19940E94F41D332312F4FE
:103BE0008A1B9B0B0C94051EA29FB001B39FC001C2
:103BF000A39F700D811D1124911DB29F700D811D19
:103C00001124911D08950E94F41DB7FF0895821B91
:103C1000930B08950E94F41DA59F900DB49F900DE5
:0E3C2000A49F800D911D11240895F894FFCFEC
:103C2E000157656C636F6D6520746F20426174740B
:103C3E006C6573686970210000000000D10758069A
:103C4E007A07A6078A07C607000000009F115806CC
:103C5E007907390C3A0C590C410C4D0C900B690C30
:103C6E00380E370E6A0CAF0CF30C440D620DD80DE6
:103C7E00000000009F115806AF129713AB172618BD
:103C8E0088129C12900B7D126716B316E5121F1345
:083C9E005913440D620DD80D0D
:00000001FF
